{
  "address": "0xa418790a4945676773f39100995724227C95268f",
  "abi": [
    {
      "inputs": [],
      "stateMutability": "nonpayable",
      "type": "constructor"
    },
    {
      "anonymous": false,
      "inputs": [
        {
          "indexed": true,
          "internalType": "address",
          "name": "owner",
          "type": "address"
        },
        {
          "indexed": true,
          "internalType": "address",
          "name": "approved",
          "type": "address"
        },
        {
          "indexed": true,
          "internalType": "uint256",
          "name": "tokenId",
          "type": "uint256"
        }
      ],
      "name": "Approval",
      "type": "event"
    },
    {
      "anonymous": false,
      "inputs": [
        {
          "indexed": true,
          "internalType": "address",
          "name": "owner",
          "type": "address"
        },
        {
          "indexed": true,
          "internalType": "address",
          "name": "operator",
          "type": "address"
        },
        {
          "indexed": false,
          "internalType": "bool",
          "name": "approved",
          "type": "bool"
        }
      ],
      "name": "ApprovalForAll",
      "type": "event"
    },
    {
      "anonymous": false,
      "inputs": [
        {
          "indexed": true,
          "internalType": "address",
          "name": "from",
          "type": "address"
        },
        {
          "indexed": true,
          "internalType": "address",
          "name": "to",
          "type": "address"
        },
        {
          "indexed": true,
          "internalType": "uint256",
          "name": "tokenId",
          "type": "uint256"
        }
      ],
      "name": "Transfer",
      "type": "event"
    },
    {
      "inputs": [],
      "name": "TOKEN_URI",
      "outputs": [
        {
          "internalType": "string",
          "name": "",
          "type": "string"
        }
      ],
      "stateMutability": "view",
      "type": "function"
    },
    {
      "inputs": [
        {
          "internalType": "address",
          "name": "to",
          "type": "address"
        },
        {
          "internalType": "uint256",
          "name": "tokenId",
          "type": "uint256"
        }
      ],
      "name": "approve",
      "outputs": [],
      "stateMutability": "nonpayable",
      "type": "function"
    },
    {
      "inputs": [
        {
          "internalType": "address",
          "name": "owner",
          "type": "address"
        }
      ],
      "name": "balanceOf",
      "outputs": [
        {
          "internalType": "uint256",
          "name": "",
          "type": "uint256"
        }
      ],
      "stateMutability": "view",
      "type": "function"
    },
    {
      "inputs": [
        {
          "internalType": "uint256",
          "name": "tokenId",
          "type": "uint256"
        }
      ],
      "name": "getApproved",
      "outputs": [
        {
          "internalType": "address",
          "name": "",
          "type": "address"
        }
      ],
      "stateMutability": "view",
      "type": "function"
    },
    {
      "inputs": [],
      "name": "getTokenCounter",
      "outputs": [
        {
          "internalType": "uint256",
          "name": "",
          "type": "uint256"
        }
      ],
      "stateMutability": "view",
      "type": "function"
    },
    {
      "inputs": [
        {
          "internalType": "address",
          "name": "owner",
          "type": "address"
        },
        {
          "internalType": "address",
          "name": "operator",
          "type": "address"
        }
      ],
      "name": "isApprovedForAll",
      "outputs": [
        {
          "internalType": "bool",
          "name": "",
          "type": "bool"
        }
      ],
      "stateMutability": "view",
      "type": "function"
    },
    {
      "inputs": [],
      "name": "mintNft",
      "outputs": [
        {
          "internalType": "uint256",
          "name": "",
          "type": "uint256"
        }
      ],
      "stateMutability": "nonpayable",
      "type": "function"
    },
    {
      "inputs": [],
      "name": "name",
      "outputs": [
        {
          "internalType": "string",
          "name": "",
          "type": "string"
        }
      ],
      "stateMutability": "view",
      "type": "function"
    },
    {
      "inputs": [
        {
          "internalType": "uint256",
          "name": "tokenId",
          "type": "uint256"
        }
      ],
      "name": "ownerOf",
      "outputs": [
        {
          "internalType": "address",
          "name": "",
          "type": "address"
        }
      ],
      "stateMutability": "view",
      "type": "function"
    },
    {
      "inputs": [
        {
          "internalType": "address",
          "name": "from",
          "type": "address"
        },
        {
          "internalType": "address",
          "name": "to",
          "type": "address"
        },
        {
          "internalType": "uint256",
          "name": "tokenId",
          "type": "uint256"
        }
      ],
      "name": "safeTransferFrom",
      "outputs": [],
      "stateMutability": "nonpayable",
      "type": "function"
    },
    {
      "inputs": [
        {
          "internalType": "address",
          "name": "from",
          "type": "address"
        },
        {
          "internalType": "address",
          "name": "to",
          "type": "address"
        },
        {
          "internalType": "uint256",
          "name": "tokenId",
          "type": "uint256"
        },
        {
          "internalType": "bytes",
          "name": "_data",
          "type": "bytes"
        }
      ],
      "name": "safeTransferFrom",
      "outputs": [],
      "stateMutability": "nonpayable",
      "type": "function"
    },
    {
      "inputs": [
        {
          "internalType": "address",
          "name": "operator",
          "type": "address"
        },
        {
          "internalType": "bool",
          "name": "approved",
          "type": "bool"
        }
      ],
      "name": "setApprovalForAll",
      "outputs": [],
      "stateMutability": "nonpayable",
      "type": "function"
    },
    {
      "inputs": [
        {
          "internalType": "bytes4",
          "name": "interfaceId",
          "type": "bytes4"
        }
      ],
      "name": "supportsInterface",
      "outputs": [
        {
          "internalType": "bool",
          "name": "",
          "type": "bool"
        }
      ],
      "stateMutability": "view",
      "type": "function"
    },
    {
      "inputs": [],
      "name": "symbol",
      "outputs": [
        {
          "internalType": "string",
          "name": "",
          "type": "string"
        }
      ],
      "stateMutability": "view",
      "type": "function"
    },
    {
      "inputs": [
        {
          "internalType": "uint256",
          "name": "tokenId",
          "type": "uint256"
        }
      ],
      "name": "tokenURI",
      "outputs": [
        {
          "internalType": "string",
          "name": "",
          "type": "string"
        }
      ],
      "stateMutability": "view",
      "type": "function"
    },
    {
      "inputs": [
        {
          "internalType": "address",
          "name": "from",
          "type": "address"
        },
        {
          "internalType": "address",
          "name": "to",
          "type": "address"
        },
        {
          "internalType": "uint256",
          "name": "tokenId",
          "type": "uint256"
        }
      ],
      "name": "transferFrom",
      "outputs": [],
      "stateMutability": "nonpayable",
      "type": "function"
    }
  ],
  "transactionHash": "0x1511f8a3ea337330f65dc63fb704d2132ff77c694ffb94ff23491f9f604080ac",
  "args": [],
  "numDeployments": 1,
  "solcInputHash": "9e8bb11877aedccc1c1ec668fb0e0a15",
  "bytecode": "0x60806040523480156200001157600080fd5b506040518060400160405280600581526020017f446f6769650000000000000000000000000000000000000000000000000000008152506040518060400160405280600381526020017f444f470000000000000000000000000000000000000000000000000000000000815250816000908051906020019062000096929190620000c0565b508060019080519060200190620000af929190620000c0565b5050506000600681905550620001d5565b828054620000ce9062000170565b90600052602060002090601f016020900481019282620000f257600085556200013e565b82601f106200010d57805160ff19168380011785556200013e565b828001600101855582156200013e579182015b828111156200013d57825182559160200191906001019062000120565b5b5090506200014d919062000151565b5090565b5b808211156200016c57600081600090555060010162000152565b5090565b600060028204905060018216806200018957607f821691505b60208210811415620001a0576200019f620001a6565b5b50919050565b7f4e487b7100000000000000000000000000000000000000000000000000000000600052602260045260246000fd5b61245480620001e56000396000f3fe608060405234801561001057600080fd5b50600436106101005760003560e01c806370a0823111610097578063b88d4fde11610066578063b88d4fde146102ad578063c2229fea146102c9578063c87b56dd146102e7578063e985e9c51461031757610100565b806370a082311461022557806378ce90351461025557806395d89b4114610273578063a22cb4651461029157610100565b806323b872dd116100d357806323b872dd1461019f57806342842e0e146101bb5780636352211e146101d75780636e02007d1461020757610100565b806301ffc9a71461010557806306fdde0314610135578063081812fc14610153578063095ea7b314610183575b600080fd5b61011f600480360381019061011a91906117ab565b610347565b60405161012c9190611aff565b60405180910390f35b61013d610429565b60405161014a9190611b1a565b60405180910390f35b61016d60048036038101906101689190611805565b6104bb565b60405161017a9190611a98565b60405180910390f35b61019d6004803603810190610198919061176b565b610540565b005b6101b960048036038101906101b49190611655565b610658565b005b6101d560048036038101906101d09190611655565b6106b8565b005b6101f160048036038101906101ec9190611805565b6106d8565b6040516101fe9190611a98565b60405180910390f35b61020f61078a565b60405161021c9190611cdc565b60405180910390f35b61023f600480360381019061023a91906115e8565b610794565b60405161024c9190611cdc565b60405180910390f35b61025d61084c565b60405161026a9190611b1a565b60405180910390f35b61027b610868565b6040516102889190611b1a565b60405180910390f35b6102ab60048036038101906102a6919061172b565b6108fa565b005b6102c760048036038101906102c291906116a8565b610910565b005b6102d1610972565b6040516102de9190611cdc565b60405180910390f35b61030160048036038101906102fc9190611805565b61099d565b60405161030e9190611b1a565b60405180910390f35b610331600480360381019061032c9190611615565b6109bf565b60405161033e9190611aff565b60405180910390f35b60007f80ac58cd000000000000000000000000000000000000000000000000000000007bffffffffffffffffffffffffffffffffffffffffffffffffffffffff1916827bffffffffffffffffffffffffffffffffffffffffffffffffffffffff1916148061041257507f5b5e139f000000000000000000000000000000000000000000000000000000007bffffffffffffffffffffffffffffffffffffffffffffffffffffffff1916827bffffffffffffffffffffffffffffffffffffffffffffffffffffffff1916145b80610422575061042182610a53565b5b9050919050565b60606000805461043890611ec5565b80601f016020809104026020016040519081016040528092919081815260200182805461046490611ec5565b80156104b15780601f10610486576101008083540402835291602001916104b1565b820191906000526020600020905b81548152906001019060200180831161049457829003601f168201915b5050505050905090565b60006104c682610abd565b610505576040517f08c379a00000000000000000000000000000000000000000000000000000000081526004016104fc90611c7c565b60405180910390fd5b6004600083815260200190815260200160002060009054906101000a900473ffffffffffffffffffffffffffffffffffffffff169050919050565b600061054b826106d8565b90508073ffffffffffffffffffffffffffffffffffffffff168373ffffffffffffffffffffffffffffffffffffffff1614156105bc576040517f08c379a00000000000000000000000000000000000000000000000000000000081526004016105b390611c9c565b60405180910390fd5b8073ffffffffffffffffffffffffffffffffffffffff166105db610b29565b73ffffffffffffffffffffffffffffffffffffffff16148061060a575061060981610604610b29565b6109bf565b5b610649576040517f08c379a000000000000000000000000000000000000000000000000000000000815260040161064090611bfc565b60405180910390fd5b6106538383610b31565b505050565b610669610663610b29565b82610bea565b6106a8576040517f08c379a000000000000000000000000000000000000000000000000000000000815260040161069f90611cbc565b60405180910390fd5b6106b3838383610cc8565b505050565b6106d383838360405180602001604052806000815250610910565b505050565b6000806002600084815260200190815260200160002060009054906101000a900473ffffffffffffffffffffffffffffffffffffffff169050600073ffffffffffffffffffffffffffffffffffffffff168173ffffffffffffffffffffffffffffffffffffffff161415610781576040517f08c379a000000000000000000000000000000000000000000000000000000000815260040161077890611c3c565b60405180910390fd5b80915050919050565b6000600654905090565b60008073ffffffffffffffffffffffffffffffffffffffff168273ffffffffffffffffffffffffffffffffffffffff161415610805576040517f08c379a00000000000000000000000000000000000000000000000000000000081526004016107fc90611c1c565b60405180910390fd5b600360008373ffffffffffffffffffffffffffffffffffffffff1673ffffffffffffffffffffffffffffffffffffffff168152602001908152602001600020549050919050565b6040518060800160405280605781526020016123c86057913981565b60606001805461087790611ec5565b80601f01602080910402602001604051908101604052809291908181526020018280546108a390611ec5565b80156108f05780601f106108c5576101008083540402835291602001916108f0565b820191906000526020600020905b8154815290600101906020018083116108d357829003601f168201915b5050505050905090565b61090c610905610b29565b8383610f2f565b5050565b61092161091b610b29565b83610bea565b610960576040517f08c379a000000000000000000000000000000000000000000000000000000000815260040161095790611cbc565b60405180910390fd5b61096c8484848461109c565b50505050565b6000610980336006546110f8565b600160065461098f9190611d85565b600681905550600654905090565b60606040518060800160405280605781526020016123c8605791399050919050565b6000600560008473ffffffffffffffffffffffffffffffffffffffff1673ffffffffffffffffffffffffffffffffffffffff16815260200190815260200160002060008373ffffffffffffffffffffffffffffffffffffffff1673ffffffffffffffffffffffffffffffffffffffff16815260200190815260200160002060009054906101000a900460ff16905092915050565b60007f01ffc9a7000000000000000000000000000000000000000000000000000000007bffffffffffffffffffffffffffffffffffffffffffffffffffffffff1916827bffffffffffffffffffffffffffffffffffffffffffffffffffffffff1916149050919050565b60008073ffffffffffffffffffffffffffffffffffffffff166002600084815260200190815260200160002060009054906101000a900473ffffffffffffffffffffffffffffffffffffffff1673ffffffffffffffffffffffffffffffffffffffff1614159050919050565b600033905090565b816004600083815260200190815260200160002060006101000a81548173ffffffffffffffffffffffffffffffffffffffff021916908373ffffffffffffffffffffffffffffffffffffffff160217905550808273ffffffffffffffffffffffffffffffffffffffff16610ba4836106d8565b73ffffffffffffffffffffffffffffffffffffffff167f8c5be1e5ebec7d5bd14f71427d1e84f3dd0314c0f7b2291e5b200ac8c7c3b92560405160405180910390a45050565b6000610bf582610abd565b610c34576040517f08c379a0000000000000000000000000000000000000000000000000000000008152600401610c2b90611bdc565b60405180910390fd5b6000610c3f836106d8565b90508073ffffffffffffffffffffffffffffffffffffffff168473ffffffffffffffffffffffffffffffffffffffff161480610cae57508373ffffffffffffffffffffffffffffffffffffffff16610c96846104bb565b73ffffffffffffffffffffffffffffffffffffffff16145b80610cbf5750610cbe81856109bf565b5b91505092915050565b8273ffffffffffffffffffffffffffffffffffffffff16610ce8826106d8565b73ffffffffffffffffffffffffffffffffffffffff1614610d3e576040517f08c379a0000000000000000000000000000000000000000000000000000000008152600401610d3590611b5c565b60405180910390fd5b600073ffffffffffffffffffffffffffffffffffffffff168273ffffffffffffffffffffffffffffffffffffffff161415610dae576040517f08c379a0000000000000000000000000000000000000000000000000000000008152600401610da590611b9c565b60405180910390fd5b610db9838383611116565b610dc4600082610b31565b6001600360008573ffffffffffffffffffffffffffffffffffffffff1673ffffffffffffffffffffffffffffffffffffffff1681526020019081526020016000206000828254610e149190611ddb565b925050819055506001600360008473ffffffffffffffffffffffffffffffffffffffff1673ffffffffffffffffffffffffffffffffffffffff1681526020019081526020016000206000828254610e6b9190611d85565b92505081905550816002600083815260200190815260200160002060006101000a81548173ffffffffffffffffffffffffffffffffffffffff021916908373ffffffffffffffffffffffffffffffffffffffff160217905550808273ffffffffffffffffffffffffffffffffffffffff168473ffffffffffffffffffffffffffffffffffffffff167fddf252ad1be2c89b69c2b068fc378daa952ba7f163c4a11628f55a4df523b3ef60405160405180910390a4610f2a83838361111b565b505050565b8173ffffffffffffffffffffffffffffffffffffffff168373ffffffffffffffffffffffffffffffffffffffff161415610f9e576040517f08c379a0000000000000000000000000000000000000000000000000000000008152600401610f9590611bbc565b60405180910390fd5b80600560008573ffffffffffffffffffffffffffffffffffffffff1673ffffffffffffffffffffffffffffffffffffffff16815260200190815260200160002060008473ffffffffffffffffffffffffffffffffffffffff1673ffffffffffffffffffffffffffffffffffffffff16815260200190815260200160002060006101000a81548160ff0219169083151502179055508173ffffffffffffffffffffffffffffffffffffffff168373ffffffffffffffffffffffffffffffffffffffff167f17307eab39ab6107e8899845ad3d59bd9653f200f220920489ca2b5937696c318360405161108f9190611aff565b60405180910390a3505050565b6110a7848484610cc8565b6110b384848484611120565b6110f2576040517f08c379a00000000000000000000000000000000000000000000000000000000081526004016110e990611b3c565b60405180910390fd5b50505050565b6111128282604051806020016040528060008152506112b7565b5050565b505050565b505050565b60006111418473ffffffffffffffffffffffffffffffffffffffff16611312565b156112aa578373ffffffffffffffffffffffffffffffffffffffff1663150b7a0261116a610b29565b8786866040518563ffffffff1660e01b815260040161118c9493929190611ab3565b602060405180830381600087803b1580156111a657600080fd5b505af19250505080156111d757506040513d601f19601f820116820180604052508101906111d491906117d8565b60015b61125a573d8060008114611207576040519150601f19603f3d011682016040523d82523d6000602084013e61120c565b606091505b50600081511415611252576040517f08c379a000000000000000000000000000000000000000000000000000000000815260040161124990611b3c565b60405180910390fd5b805181602001fd5b63150b7a0260e01b7bffffffffffffffffffffffffffffffffffffffffffffffffffffffff1916817bffffffffffffffffffffffffffffffffffffffffffffffffffffffff1916149150506112af565b600190505b949350505050565b6112c18383611335565b6112ce6000848484611120565b61130d576040517f08c379a000000000000000000000000000000000000000000000000000000000815260040161130490611b3c565b60405180910390fd5b505050565b6000808273ffffffffffffffffffffffffffffffffffffffff163b119050919050565b600073ffffffffffffffffffffffffffffffffffffffff168273ffffffffffffffffffffffffffffffffffffffff1614156113a5576040517f08c379a000000000000000000000000000000000000000000000000000000000815260040161139c90611c5c565b60405180910390fd5b6113ae81610abd565b156113ee576040517f08c379a00000000000000000000000000000000000000000000000000000000081526004016113e590611b7c565b60405180910390fd5b6113fa60008383611116565b6001600360008473ffffffffffffffffffffffffffffffffffffffff1673ffffffffffffffffffffffffffffffffffffffff168152602001908152602001600020600082825461144a9190611d85565b92505081905550816002600083815260200190815260200160002060006101000a81548173ffffffffffffffffffffffffffffffffffffffff021916908373ffffffffffffffffffffffffffffffffffffffff160217905550808273ffffffffffffffffffffffffffffffffffffffff16600073ffffffffffffffffffffffffffffffffffffffff167fddf252ad1be2c89b69c2b068fc378daa952ba7f163c4a11628f55a4df523b3ef60405160405180910390a461150b6000838361111b565b5050565b600061152261151d84611d1c565b611cf7565b90508281526020810184848401111561153e5761153d611fba565b5b611549848285611e83565b509392505050565b6000813590506115608161236b565b92915050565b60008135905061157581612382565b92915050565b60008135905061158a81612399565b92915050565b60008151905061159f81612399565b92915050565b600082601f8301126115ba576115b9611fb5565b5b81356115ca84826020860161150f565b91505092915050565b6000813590506115e2816123b0565b92915050565b6000602082840312156115fe576115fd611fc4565b5b600061160c84828501611551565b91505092915050565b6000806040838503121561162c5761162b611fc4565b5b600061163a85828601611551565b925050602061164b85828601611551565b9150509250929050565b60008060006060848603121561166e5761166d611fc4565b5b600061167c86828701611551565b935050602061168d86828701611551565b925050604061169e868287016115d3565b9150509250925092565b600080600080608085870312156116c2576116c1611fc4565b5b60006116d087828801611551565b94505060206116e187828801611551565b93505060406116f2878288016115d3565b925050606085013567ffffffffffffffff81111561171357611712611fbf565b5b61171f878288016115a5565b91505092959194509250565b6000806040838503121561174257611741611fc4565b5b600061175085828601611551565b925050602061176185828601611566565b9150509250929050565b6000806040838503121561178257611781611fc4565b5b600061179085828601611551565b92505060206117a1858286016115d3565b9150509250929050565b6000602082840312156117c1576117c0611fc4565b5b60006117cf8482850161157b565b91505092915050565b6000602082840312156117ee576117ed611fc4565b5b60006117fc84828501611590565b91505092915050565b60006020828403121561181b5761181a611fc4565b5b6000611829848285016115d3565b91505092915050565b61183b81611e0f565b82525050565b61184a81611e21565b82525050565b600061185b82611d4d565b6118658185611d63565b9350611875818560208601611e92565b61187e81611fc9565b840191505092915050565b600061189482611d58565b61189e8185611d74565b93506118ae818560208601611e92565b6118b781611fc9565b840191505092915050565b60006118cf603283611d74565b91506118da82611fda565b604082019050919050565b60006118f2602583611d74565b91506118fd82612029565b604082019050919050565b6000611915601c83611d74565b915061192082612078565b602082019050919050565b6000611938602483611d74565b9150611943826120a1565b604082019050919050565b600061195b601983611d74565b9150611966826120f0565b602082019050919050565b600061197e602c83611d74565b915061198982612119565b604082019050919050565b60006119a1603883611d74565b91506119ac82612168565b604082019050919050565b60006119c4602a83611d74565b91506119cf826121b7565b604082019050919050565b60006119e7602983611d74565b91506119f282612206565b604082019050919050565b6000611a0a602083611d74565b9150611a1582612255565b602082019050919050565b6000611a2d602c83611d74565b9150611a388261227e565b604082019050919050565b6000611a50602183611d74565b9150611a5b826122cd565b604082019050919050565b6000611a73603183611d74565b9150611a7e8261231c565b604082019050919050565b611a9281611e79565b82525050565b6000602082019050611aad6000830184611832565b92915050565b6000608082019050611ac86000830187611832565b611ad56020830186611832565b611ae26040830185611a89565b8181036060830152611af48184611850565b905095945050505050565b6000602082019050611b146000830184611841565b92915050565b60006020820190508181036000830152611b348184611889565b905092915050565b60006020820190508181036000830152611b55816118c2565b9050919050565b60006020820190508181036000830152611b75816118e5565b9050919050565b60006020820190508181036000830152611b9581611908565b9050919050565b60006020820190508181036000830152611bb58161192b565b9050919050565b60006020820190508181036000830152611bd58161194e565b9050919050565b60006020820190508181036000830152611bf581611971565b9050919050565b60006020820190508181036000830152611c1581611994565b9050919050565b60006020820190508181036000830152611c35816119b7565b9050919050565b60006020820190508181036000830152611c55816119da565b9050919050565b60006020820190508181036000830152611c75816119fd565b9050919050565b60006020820190508181036000830152611c9581611a20565b9050919050565b60006020820190508181036000830152611cb581611a43565b9050919050565b60006020820190508181036000830152611cd581611a66565b9050919050565b6000602082019050611cf16000830184611a89565b92915050565b6000611d01611d12565b9050611d0d8282611ef7565b919050565b6000604051905090565b600067ffffffffffffffff821115611d3757611d36611f86565b5b611d4082611fc9565b9050602081019050919050565b600081519050919050565b600081519050919050565b600082825260208201905092915050565b600082825260208201905092915050565b6000611d9082611e79565b9150611d9b83611e79565b9250827fffffffffffffffffffffffffffffffffffffffffffffffffffffffffffffffff03821115611dd057611dcf611f28565b5b828201905092915050565b6000611de682611e79565b9150611df183611e79565b925082821015611e0457611e03611f28565b5b828203905092915050565b6000611e1a82611e59565b9050919050565b60008115159050919050565b60007fffffffff0000000000000000000000000000000000000000000000000000000082169050919050565b600073ffffffffffffffffffffffffffffffffffffffff82169050919050565b6000819050919050565b82818337600083830152505050565b60005b83811015611eb0578082015181840152602081019050611e95565b83811115611ebf576000848401525b50505050565b60006002820490506001821680611edd57607f821691505b60208210811415611ef157611ef0611f57565b5b50919050565b611f0082611fc9565b810181811067ffffffffffffffff82111715611f1f57611f1e611f86565b5b80604052505050565b7f4e487b7100000000000000000000000000000000000000000000000000000000600052601160045260246000fd5b7f4e487b7100000000000000000000000000000000000000000000000000000000600052602260045260246000fd5b7f4e487b7100000000000000000000000000000000000000000000000000000000600052604160045260246000fd5b600080fd5b600080fd5b600080fd5b600080fd5b6000601f19601f8301169050919050565b7f4552433732313a207472616e7366657220746f206e6f6e20455243373231526560008201527f63656976657220696d706c656d656e7465720000000000000000000000000000602082015250565b7f4552433732313a207472616e736665722066726f6d20696e636f72726563742060008201527f6f776e6572000000000000000000000000000000000000000000000000000000602082015250565b7f4552433732313a20746f6b656e20616c7265616479206d696e74656400000000600082015250565b7f4552433732313a207472616e7366657220746f20746865207a65726f2061646460008201527f7265737300000000000000000000000000000000000000000000000000000000602082015250565b7f4552433732313a20617070726f766520746f2063616c6c657200000000000000600082015250565b7f4552433732313a206f70657261746f7220717565727920666f72206e6f6e657860008201527f697374656e7420746f6b656e0000000000000000000000000000000000000000602082015250565b7f4552433732313a20617070726f76652063616c6c6572206973206e6f74206f7760008201527f6e6572206e6f7220617070726f76656420666f7220616c6c0000000000000000602082015250565b7f4552433732313a2062616c616e636520717565727920666f7220746865207a6560008201527f726f206164647265737300000000000000000000000000000000000000000000602082015250565b7f4552433732313a206f776e657220717565727920666f72206e6f6e657869737460008201527f656e7420746f6b656e0000000000000000000000000000000000000000000000602082015250565b7f4552433732313a206d696e7420746f20746865207a65726f2061646472657373600082015250565b7f4552433732313a20617070726f76656420717565727920666f72206e6f6e657860008201527f697374656e7420746f6b656e0000000000000000000000000000000000000000602082015250565b7f4552433732313a20617070726f76616c20746f2063757272656e74206f776e6560008201527f7200000000000000000000000000000000000000000000000000000000000000602082015250565b7f4552433732313a207472616e736665722063616c6c6572206973206e6f74206f60008201527f776e6572206e6f7220617070726f766564000000000000000000000000000000602082015250565b61237481611e0f565b811461237f57600080fd5b50565b61238b81611e21565b811461239657600080fd5b50565b6123a281611e2d565b81146123ad57600080fd5b50565b6123b981611e79565b81146123c457600080fd5b5056fe697066733a2f2f62616679626569673337696f6972373673376d67356f6f6265746e636f6a636d3363336878617379643472766964346a71687934676b61686567342f3f66696c656e616d653d302d5055472e6a736f6ea264697066735822122040cbf0d3c77795f15f88aa10fdb84d7f61911c5670157dafb0aebbffb94e2d8964736f6c63430008070033",
  "devdoc": {
    "kind": "dev",
    "methods": {
      "approve(address,uint256)": {
        "details": "See {IERC721-approve}."
      },
      "balanceOf(address)": {
        "details": "See {IERC721-balanceOf}."
      },
      "getApproved(uint256)": {
        "details": "See {IERC721-getApproved}."
      },
      "isApprovedForAll(address,address)": {
        "details": "See {IERC721-isApprovedForAll}."
      },
      "name()": {
        "details": "See {IERC721Metadata-name}."
      },
      "ownerOf(uint256)": {
        "details": "See {IERC721-ownerOf}."
      },
      "safeTransferFrom(address,address,uint256)": {
        "details": "See {IERC721-safeTransferFrom}."
      },
      "safeTransferFrom(address,address,uint256,bytes)": {
        "details": "See {IERC721-safeTransferFrom}."
      },
      "setApprovalForAll(address,bool)": {
        "details": "See {IERC721-setApprovalForAll}."
      },
      "supportsInterface(bytes4)": {
        "details": "See {IERC165-supportsInterface}."
      },
      "symbol()": {
        "details": "See {IERC721Metadata-symbol}."
      },
      "tokenURI(uint256)": {
        "details": "See {IERC721Metadata-tokenURI}."
      },
      "transferFrom(address,address,uint256)": {
        "details": "See {IERC721-transferFrom}."
      }
    },
    "version": 1
  },
  "userdoc": {
    "kind": "user",
    "methods": {},
    "version": 1
  },
  "storageLayout": {
    "storage": [
      {
        "astId": 65,
        "contract": "contracts/test/BasicNft.sol:BasicNft",
        "label": "_name",
        "offset": 0,
        "slot": "0",
        "type": "t_string_storage"
      },
      {
        "astId": 67,
        "contract": "contracts/test/BasicNft.sol:BasicNft",
        "label": "_symbol",
        "offset": 0,
        "slot": "1",
        "type": "t_string_storage"
      },
      {
        "astId": 71,
        "contract": "contracts/test/BasicNft.sol:BasicNft",
        "label": "_owners",
        "offset": 0,
        "slot": "2",
        "type": "t_mapping(t_uint256,t_address)"
      },
      {
        "astId": 75,
        "contract": "contracts/test/BasicNft.sol:BasicNft",
        "label": "_balances",
        "offset": 0,
        "slot": "3",
        "type": "t_mapping(t_address,t_uint256)"
      },
      {
        "astId": 79,
        "contract": "contracts/test/BasicNft.sol:BasicNft",
        "label": "_tokenApprovals",
        "offset": 0,
        "slot": "4",
        "type": "t_mapping(t_uint256,t_address)"
      },
      {
        "astId": 85,
        "contract": "contracts/test/BasicNft.sol:BasicNft",
        "label": "_operatorApprovals",
        "offset": 0,
        "slot": "5",
        "type": "t_mapping(t_address,t_mapping(t_address,t_bool))"
      },
      {
        "astId": 2086,
        "contract": "contracts/test/BasicNft.sol:BasicNft",
        "label": "s_tokenCounter",
        "offset": 0,
        "slot": "6",
        "type": "t_uint256"
      }
    ],
    "types": {
      "t_address": {
        "encoding": "inplace",
        "label": "address",
        "numberOfBytes": "20"
      },
      "t_bool": {
        "encoding": "inplace",
        "label": "bool",
        "numberOfBytes": "1"
      },
      "t_mapping(t_address,t_bool)": {
        "encoding": "mapping",
        "key": "t_address",
        "label": "mapping(address => bool)",
        "numberOfBytes": "32",
        "value": "t_bool"
      },
      "t_mapping(t_address,t_mapping(t_address,t_bool))": {
        "encoding": "mapping",
        "key": "t_address",
        "label": "mapping(address => mapping(address => bool))",
        "numberOfBytes": "32",
        "value": "t_mapping(t_address,t_bool)"
      },
      "t_mapping(t_address,t_uint256)": {
        "encoding": "mapping",
        "key": "t_address",
        "label": "mapping(address => uint256)",
        "numberOfBytes": "32",
        "value": "t_uint256"
      },
      "t_mapping(t_uint256,t_address)": {
        "encoding": "mapping",
        "key": "t_uint256",
        "label": "mapping(uint256 => address)",
        "numberOfBytes": "32",
        "value": "t_address"
      },
      "t_string_storage": {
        "encoding": "bytes",
        "label": "string",
        "numberOfBytes": "32"
      },
      "t_uint256": {
        "encoding": "inplace",
        "label": "uint256",
        "numberOfBytes": "32"
      }
    }
  }
}